:020000000F28C7
:10000800FE00030E8312C9000408CA000A08CB00C8
:100018007F08CC00BF2C10281A25CD001B25CE0048
:100028001C25CF001D25D0001E25D1001F25D2007C
:100038008316A901AA018312D301D401D501830132
:100048006D2B83125408031D5403031DA428510863
:100058005204031D33280030FA2400300B250130E8
:100068008312CD0203304D06031D40285408031D9A
:1000780040280130FA246D28023083124D06031DF2
:100088004B285408031D4B280030FA246D2883128E
:100098004D03031D52280130FA246D2883124D08A0
:1000A800031D6D280030FA248312540803196028B0
:1000B800783002231E3E6328233002230F3E83122A
:1000C800B600003003180130B7003608B300330813
:1000D800CD0083125408031973280630742804309D
:1000E800B8000030B9003908AB003808AA00520837
:1000F800AD005108AC00A02383122A082B04031D6D
:10010800D228540803198A2806308B280430BA00EC
:100118000030BB000130B3003B08F1003A08F000A2
:100128005208F3005108F200C62270080739013E50
:100138008312A0280310B30DFF3E031D9E28D0286C
:1001480002305406031DF52851085204031DB02837
:100158000030FA2400300B25033083125105B30018
:1001680000305205B40033083404031DD22801308E
:10017800B3005208B5005108B4000310B50CB40C14
:100188000310B50CB40C34080739013ECD28031010
:10019800B30DFF3E031DCB2833080B250130831216
:1001A80052020030031951020318DD285108322584
:1001B800072A0130831252020F3003195102031C1F
:1001C800F328023052020E30031951020318F328A3
:1001D8005108F23EFF3A013EFF3E3225072A183009
:1001E8007D29033054060319FD2804305406031DE5
:1001F800362951085204031D1229033054060319E5
:100208000829BC01BD010C29FF30BC000030BD002D
:100218003C08322500300B250030FA2403308312C5
:100228005105B30000305205B40033083404031DEF
:1002380034290130B3005208B5005108B400031046
:10024800B50CB40C0310B50CB40C34080739013ED6
:100258002F290310B30DFF3E031D2D2933080B254D
:100268002030FE2905305402031C8329083054022B
:100278000318832951085204031D5B2905305406CD
:10028800031955290630540603194C2955304D29B0
:10029800FF30C0000030C1004108BF004008BE0068
:1002A8005729BE01BF013E080B250030FA24013052
:1002B80083125202003003195102031866295108AB
:1002C8003225072A0130831252020F3003195102D6
:1002D800031C7C29023052020E3003195102031804
:1002E8007C295108F23EFF3A013EFF3E3225072A9B
:1002F800123083125106023003195206012A0830BF
:100308005402031CB7290C3054020318B7295108AA
:100318005204031D072A09305406031D9629C201F9
:10032800C3019A29FF30C2000030C30042083225B9
:100338000830831254060319B0290B3054060319E8
:10034800A729FF30A8295530C6000030C700470844
:10035800C5004608C400B229C401C50144080B25DC
:100368000030FA24072A0C3083125406031DD429BE
:1003780051085204031DC7290030FA24FF303225E2
:1003880000300B25072A2630831251065204031D1C
:10039800D22900303225FF300B25072A4B30FE29A1
:1003A8000D305406031D072A51085204031DE32982
:1003B800FF30322500300B250030FA24072A0C3094
:1003C800831251065204031DF02900303225FF30F4
:1003D8000B250030FA24072A1830831251065204DC
:1003E800031DFD290030322500300B250130FA2489
:1003F800072A2330831251065204031D072AFF30AF
:10040800D100FF30D20001308312D1070318D20A7D
:100418000030D20708008312A901A71F202AA409C7
:10042800A509A609A709A40A0319A50A0319A60A72
:100438000319A70AA901A90AA31F2D2AA009A1091E
:10044800A209A309A00A0319A10A0319A20A0319F8
:10045800A30A23082204210420040319702AA801EE
:10046800A80AA31B452A0130FD000310A00DA10D09
:10047800A20DA30DFD0B392A0130FD007D08A80748
:10048800352A23082702031D532A22082602031DA2
:10049800532A21082502031D532A20082402031C7D
:1004A800632A2008A4022108031C210FA5022208A0
:1004B800031C220FA6022308031C230FA7020130E6
:1004C8000310A30CA20CA10CA00CFF3E031D642A70
:1004D8000130A802031D452A290803197E2AA40908
:1004E800A509A609A709A40A0319A50A0319A60AB2
:1004F8000319A70A2708A3002608A2002508A100B7
:100508002408A00008000030FC000030FB00003088
:10051800FA000030F900701CA52A7408F90775085C
:1005280003110318013E031DFA0776080311031887
:10053800013E031DFB07770803110318013E031D45
:10054800FC070130F8000310F40DF50DF60DF70D5A
:10055800F80BA72A01300310F30CF20CF10CF00C85
:10056800FF3E031DAF2A7308720471047004031D53
:100578008F2A7C08F3007B08F2007A08F1007908DA
:10058800F0000800F501F601700871040319FD2A4E
:10059800F701F70AF11BDC2A01300310F00DF10D09
:1005A800FF3E031DD12A0130F4007408F707CE2A54
:1005B80001300310F50DF60DFF3E031DDD2A71080D
:1005C8007302031DE92A70087202031CF22A7008DC
:1005D800F2027108031CF303F302751401300310CF
:1005E800F10CF00CFF3E031DF32A0130F702031D46
:1005F800DC2A7608F1007508F00008008312B200C2
:100608003208B000B1013008AA003108AB00003050
:10061800F7000030F600BC30F5008F30F4004F08CA
:10062800F0005008F100F201F301872273088312E9
:10063800A7007208A6007108A5007008A400003081
:10064800A3000030A2007F30A100FF30A0000F22DD
:1006580083122108D0002008CF005008AD004F08B1
:10066800AC00A02383122A08080002308312530228
:10067800031C08004E08803A7F3E031C4D2B1325AF
:10068800003A031D4D2BFF308312C8004808CE07DF
:100698006B2B83124E08803A823E031C6B2B4E084C
:1006A800803A7F3E03186B2B1325003A03196B2BF6
:1006B800FF308312C8004808CE07FD304E06031DE0
:1006C8006B2B322405308312C8004808CE00252041
:1006D800080075240030F12400302025003003255F
:1006E80001308316A60026088312D3000030AA24FE
:1006F8008316A60026088312D4000D308316A7009F
:10070800FB30A600A60B862BA70B862B0000023019
:100718008316A60026088312D30006308316A80085
:100728001330A700AD30A600A60B982BA70B982B6B
:10073800A80B982B0000912B83122A082B0403196D
:10074800CE2BAF01AF0AAB1BB52B01300310AA0D9E
:10075800AB0DFF3E031DAA2B0130AE002E08AF07DC
:10076800A72B2B082D02031DBB2B2A082C02031CC8
:10077800C32B2A08AC022B08031CAD03AD020130C1
:100788000310AB0CAA0CFF3E031DC42B0130AF02B3
:10079800031DB52B2D08AB002C08AA0008008316F2
:1007A800A100A20108302202031808002108A000B5
:1007B800220AE02B0310A00CFF3E031DDE2B201C99
:1007C800EC2BAA16262506308316A000A00BEA2BD0
:1007D8008316AA14262506308316A000A00BF22B38
:1007E8008316AA10AA12262506308316A000A00B8D
:1007F800FB2B01308316A0002008A207D62BF1009E
:10080800F20108307202031808007108F000720A39
:100818000F2C0310F00CFF3E031D0D2C701C1C2C1C
:100828008316AA162C250630F000F00B192C0000B0
:100838008316AA142C250630F000F00B212C00009A
:100848008316AA10AA122C250630F000F00B2A2CC9
:1008580000000130F0007008F207052C0D308312FB
:10086800540203183F2C5408013EF70000300318C7
:100878000130F800412CF701F8017708F6007608F6
:10088800D400FF30D100FF30D2000030FA2400300D
:10089800322500300B2583125408F6007608F00044
:1008A800003057240800F20083169C18582C720850
:1008B8009B0070089A003F30F10071089C05831274
:1008C80003108B1B03148B1383161C1555309D00C6
:1008D800AA309D009C141C118312031C08008B175E
:1008E8000800613083168F000510851005118515E5
:1008F80005128512C030AA0526257F308312920082
:100908004630831681000C30831295000830831618
:1009180096008B168B150B178B1708000230831265
:100928005302031C08001325003A031DA22C83124E
:10093800551CA22C0530F1007108CE001325F100DA
:10094800710C831255100318551408008316A10062
:10095800640083169C18AC2C21089B003F30A00033
:1009680020089C051C1403101C18031400300318DD
:1009780001301A0808000B1DC32C39230B110B1C5E
:10098800C72C92240B1083124C08FF004B088A00D6
:100998004A088400490E8300FE0E7E0E0900831665
:1009A8002908D32383162A16262506308316A30082
:1009B800A30BDC2C83162A12262508008316290887
:1009C800032483162A162C250630F300F30BEA2C91
:1009D800000083162A122C2508008316A000200880
:1009E80001392A10031D2A1426250800F000700872
:1009F800013983162A10031D2A142C250800831692
:100A0800A5002508A4002408A900D3240800F5009F
:100A18007508F40074088316A900E22408008312FC
:100A2800050CF000F00C700C0139080011340F347B
:100A380029340B34FF34FF348316A00020088312B6
:100A48009300080083162A083F398312850008009E
:100A580083162A083F39831285000800F0007008C1
:060A680083129300080058
:02400E00D4FCE0
:1042000000000000000000000000000000000000AE
:10421000000000000000000000000000000000009E
:10422000000000000000000000000000000000008E
:10423000000000000000000000000000000000007E
:10424000000000000000000000000000000000006E
:10425000000000000000000000000000000000005E
:00000001FF
